:100000000C9434000C9451000C9451000C94510049
:100010000C9451000C9451000C9451000C9451001C
:100020000C9451000C9451000C9451000C9451000C
:100030000C9451000C9451000C9451000C945100FC
:100040000C940A020C9451000C9451000C94510031
:100050000C94EA010C9451000C9451000C94510042
:100060000C9451000C94510011241FBECFEFD8E026
:10007000DEBFCDBF11E0A0E0B1E0EAE7F7E002C0EB
:1000800005900D92AC30B107D9F721E0ACE0B1E0BA
:1000900001C01D92AE37B207E1F70E945C020C94DA
:1000A000BB030C9400002FEF83ED90E321508040C0
:1000B0009040E1F700C00000E4E0F1E08CE091E066
:1000C0001192E817F907E1F70895CF93DF93809134
:1000D000040181110E9453000E944803C7E0D0E050
:1000E000BE010E94D4028F5F809375018FEF8093D1
:1000F00072010E944803BE010E94D40290937D01C8
:1001000080937C01DF91CF910895CF93DF93C4E07A
:10011000D1E020E0AE0188818F3F81F41882222354
:1001200059F0822FE82FF0E0EC5FFE4FDF011197CE
:100130009C9190838150B1F7FA0110822F5F219634
:10014000283049F7DF91CF910895E4E0F1E08CE0A9
:1001500091E01192E817F907E1F70895452B89F02E
:10016000E62FF0E0EC5FFE4F21E030E0A90102C095
:10017000440F551F8A95E2F7CA019081892B80832D
:100180000895E62FF0E0EC5FFE4F21E030E0A9019A
:1001900002C0440F551F8A95E2F7CA0180959081ED
:1001A0008923808308957F928F929F92AF92BF920E
:1001B000CF92DF92EF92FF920F931F93CF93DF9333
:1001C000842E912C18141904B4F020C0172DC0E00F
:1001D000D0E0A601612F802F0E94AE002196115021
:1001E000CE15DF05B1F78FEFA81AB80A0F5FA81474
:1001F000B90441F40BC06801762E082FA12CB12C54
:10020000E22EF12C1E141F040CF3EDCFDF91CF91E1
:100210001F910F91FF90EF90DF90CF90BF90AF9024
:100220009F908F907F900895EF92FF920F931F936E
:10023000CF93DF93C82FD62F79014230510541F17A
:100240003CF44115510561F04130510579F035C05C
:100250004430510549F184F04530510559F12DC024
:10026000890123E041E00E94D30027C0890121E0F9
:1002700043E00E94D30021C0890122E041E00E94B6
:10028000D300A7016D2F8FEF8C0F0E94AE0015C019
:10029000890122E041E00E94D300A7016D2F81E097
:1002A0008C0F0E94AE0009C0890122E042E00E944A
:1002B000D30003C0A9010E94AE00DF91CF911F912E
:1002C0000F91FF90EF900895609172016F5F6093BE
:1002D000720140917C0150917D0121E030E08091DC
:1002E00075010E94140180917201873010F00E9404
:1002F0006500E0917201F0E0EC5FFE4F818190E0DB
:100300000090750102C0959587950A94E2F780FDEB
:100310000E94650008959BB19F769BB990E99A95DC
:10032000F1F720E030E0E82FF0E05C9880E98A9572
:10033000F1F74BB1BF01022E02C0759567950A9483
:10034000E2F7962F979599279795942B9BB990E96B
:100350009A95F1F75C9A80E98A95F1F75F9890E9B0
:100360009A95F1F72F5F3F4F28303105F1F65C98F1
:1003700080E98A95F1F70895EF92FF920F931F930A
:10038000CF93DF938C01C0E0D0E0EE24E394F12C16
:100390005A9820E92A95F1F7C7010C2E02C0880F60
:1003A000991F0A94E2F780950E948B01F8018191D0
:1003B0008F010E948B015A9AF0E9FA95F1F7219684
:1003C000C830D10529F7DF91CF911F910F91FF9090
:1003D000EF9008951F920F920FB60F9211248F93F2
:1003E000EF93FF93E0910C0180910D018E1751F076
:1003F00081E08E0F80930C01F0E0E25FFE4F808180
:100400008093C600FF91EF918F910F900FBE0F90D8
:100410001F9018951F920F920FB60F9211242F93D1
:100420003F938F939F9381E090E090937B01809323
:100430007A0186E086BD80917801909179010196DC
:10044000909379018093780120917801309179011E
:1004500080917301909174012817390754F081E05D
:1004600090E0909377018093760110927901109239
:1004700078019F918F913F912F910F900FBE0F9018
:100480001F90189517B883E088B984E98AB91BB81A
:10049000089588E48093C10087E690E09093C500BA
:1004A0008093C400089514BC81E080936E0085E0C1
:1004B00085BD86E086BD08950E9449020E944202E1
:1004C0000E9453020E94A5000E9465007894109239
:1004D00079011092780183E290E090937401809307
:1004E0007301109277011092760110927B011092A5
:1004F0007A018091760190917701892B09F444C0AB
:100500000E94850040917C0150917D0120E030E007
:1005100060917201809175010E941401319916C099
:1005200080917501873090F4E0917201F0E0EC5F0A
:10053000FE4F208130E091E0980F092E02C03595E2
:1005400027950A94E2F720FF90937501309916C021
:1005500080917501882391F0E0917201F0E0EC5FE9
:10056000FE4F208130E09FEF980F092E02C0359595
:1005700027950A94E2F720FF909375010E94640189
:10058000109277011092760180917A0190917B010F
:10059000892B09F4AECF84E091E00E94BC01109257
:1005A0007B0110927A01A5CF97FB072E16F40094D9
:1005B00007D077FD09D00E94E80207FC05D03EF481
:1005C000909581959F4F0895709561957F4F0895FF
:1005D000AA1BBB1B51E107C0AA1FBB1FA617B70769
:1005E00010F0A61BB70B881F991F5A95A9F7809585
:1005F0009095BC01CD0108958F929F92AF92BF92CA
:10060000CF92DF92EF92FF92CF93DF93EC0168815C
:1006100079818A819B81611571058105910521F49C
:1006200064E279ED8BE597E02DE133EF41E050E0B6
:100630000E94580349015A019B01AC01A7EAB1E4A9
:100640000E9477036B017C01ACEEB4EFA50194012D
:100650000E948503DC01CB018C0D9D1DAE1DBF1DCD
:10066000B7FF03C00197A109B04888839983AA8383
:10067000BB839F77DF91CF91FF90EF90DF90CF907A
:10068000BF90AF909F908F9008950E94FC020895B4
:1006900080E091E00E94FC020895A0E0B0E0809329
:1006A000000190930101A0930201B093030108950A
:1006B000052E97FB1EF400940E946F0357FD07D090
:1006C0000E948A0307FC03D04EF40C946F035095EC
:1006D0004095309521953F4F4F4F5F4F089590952E
:1006E0008095709561957F4F8F4F9F4F08950E9421
:1006F000AC03A59F900DB49F900DA49F800D911DFC
:1007000011240895B7FF0C9477030E947703821B8E
:10071000930B0895A1E21A2EAA1BBB1BFD010DC06D
:10072000AA1FBB1FEE1FFF1FA217B307E407F507A1
:1007300020F0A21BB30BE40BF50B661F771F881F7D
:10074000991F1A9469F760957095809590959B0113
:10075000AC01BD01CF010895A29FB001B39FC001BC
:10076000A39F700D811D1124911DB29F700D811DDD
:0A0770001124911D0895F894FFCFA5
:0C077A0001000000017E464A52627E0031
:00000001FF
